:100000000C9434000C9451000C9451000C94510049
:100010000C9451000C9451000C9451000C9451001C
:100020000C9451000C9451000C9451000C9451000C
:100030000C9451000C9451000C9451000C945100FC
:100040000C9451000C9451000C9451000C945100EC
:100050000C9451000C9451000C9451000C945100DC
:100060000C9451000C94510011241FBECFEFD8E026
:10007000DEBFCDBF11E0A0E0B1E0EEEFF2E002C0E4
:1000800005900D92A235B107D9F721E0A2E5B1E0C4
:1000900001C01D92A835B207E1F70E9453000C94ED
:1000A0007D010C9400000E94920080E091E090930A
:1000B00055018093540180E291E00E944D010E941D
:1000C00068000E94C2008FE391E00E944D01FFCFC3
:1000D0008CE284B92A9A80E58CBD8DB581608DBD96
:1000E00008952A9820EF2EBD0DB407FEFDCF9EBDCA
:1000F0000DB407FEFDCF8EBD0DB407FEFDCF6EBD66
:100100000DB407FEFDCF2A9A08958091C000882380
:1001100044F4A6ECB0E0E0ECF0E08C918081882320
:10012000E4F308951092C5008FEC8093C40088E139
:100130008093C10086E08093C2000E9485000895EC
:10014000CF93C82F8A3019F48DE00E94A000E0EC14
:10015000F0E0908195FFFDCFC093C60080E090E075
:10016000CF910895CF93BC01E0ECF0E0908199230A
:10017000ECF7C091C6008C2F0E94A0008C2F90E05D
:10018000CF910895CF93DF9360E870E080E090E036
:100190000E947100CEE0D1E0688170E081E090E0E3
:1001A0000E947100698170E082E090E00E9471001D
:1001B0006A8170E083E090E00E9471006B8170E0E2
:1001C00084E090E00E947100CAE1D1E0688170E0B3
:1001D00089E090E00E947100698170E08AE090E01F
:1001E0000E9471006A8170E08BE090E00E947100D3
:1001F0006B8170E08CE090E00E9471006C8170E097
:100200008DE090E00E9471006D8170E08EE090E0E2
:100210000E947100C2E1D1E0688170E085E090E069
:100220000E947100698170E086E090E00E94710098
:100230006A8170E087E090E00E9471006B8170E05D
:1002400088E090E00E947100C6E1D1E0688170E032
:100250008FE090E00E947100698170E080E190E0A1
:100260000E9471006A8170E081E190E00E9471005B
:100270006B8170E082E190E00E94710065E570E0C2
:100280008AE190E00E94710065E570E08BE190E00A
:100290000E947100DF91CF9108950F931F93CF9328
:1002A000DF93E0915401F0915501238121FF1BC0A0
:1002B0008C01D0E0C0E0F80181918F016091540180
:1002C00070915501DB011896ED91FC9119978823E7
:1002D00031F00995892B79F3DFEFCFEFECCF8AE08E
:1002E0000995892B19F08FEF9FEF02C08D2F9C2F5E
:0E02F000DF91CF911F910F910895F894FFCFE9
:1002FE000000000300000000A000B2000000C0A833
:10030E000001FFFFFF00C0A8000290A2DA0DD7D5B2
:10031E00496E697469616C697A696E672057697A8A
:10032E006E657420616E64205350492E2E2E004946
:10033E006E697469616C697A696E6720646F6E6547
:02034E0021008C
:00000001FF
