S011000053696D706C655443502E73726563C2
S11300000C94B5000C94D2000C94D2000C94D20041
S11300100C94D2000C94D2000C94D2000C94D20014
S11300200C94D2000C94D2000C94D2000C94D20004
S11300300C94D2000C94D2000C94D2000C94D200F4
S11300400C94D2000C94D2000C94D2000C94D200E4
S11300500C94D2000C94D2000C94D2000C94D200D4
S11300600C94D2000C94D2006E616E00696E66002E
S113007000407A10F35A00A0724E18090010A5D45B
S1130080E80000E87648170000E40B54020000CAB8
S11300909A3B000000E1F5050000809698000000FE
S11300A040420F000000A08601000000102700005D
S11300B00000E803000000006400000000000A00E3
S11300C0000000000100000000002C76D888DC67E6
S11300D04F0823DFC1DFAE59E1B1B796E5E3E4533E
S11300E0C63AE651997696E8E6C28426EB898C9B5B
S11300F062ED407C6FFCEFBC9C9F40F2BAA56FA5FB
S1130100F490055A2AF75C936B6CF9676DC11BFC7C
S1130110E0E40D47FEF520E6B500D0ED902E030097
S1130120943577050080841E080000204E0A0000E4
S113013000C80C333333330F986E12831141EF8DA3
S11301402114893BE65516CFFEE6DB18D1844B38E3
S11301501BF77C1D901DA4BBE424203284725E2214
S11301608100C9F124ECA1E53D2711241FBECFEF86
S1130170D8E0DEBFCDBF13E0A0E0B1E0E6E6F6E1F3
S113018002C005900D92A433B107D9F723E0A4E38C
S1130190B3E001C01D92AA3BB207E1F70E940E0131
S11301A00C94310B0C94000080E480937C0087E86D
S11301B080937A000895ECE7F0E090818770982BA3
S11301C09083EAE7F0E0808180648083808184FF0B
S11301D0FDCFEAE7F0E08081806180838091780040
S11301E0909179000895FB012081222389F0FC017C
S11301F0308123130FC0FB013196DC01119603C03B
S11302008D91981309C091919111FACF81E00895CD
S113021081E0089580E0089580E008952F923F9250
S11302204F925F926F927F928F929F92AF92BF9202
S1130230CF92DF92EF92FF920F931F93CF93DF93AE
S11302400E94E80280E091E09093B7038093B603A4
S11302500E94D4002FE38BE49CE421508040904022
S1130260E1F700C0000080E291E00E94A30A0E942E
S11302708002AFE3BBE4ECE4A150B040E040E1F71E
S113028000C000000E9443048FE391E00E94A30A8F
S1130290212C0F2EF2E2CF2EF3E0DF2EF02D0F2EC5
S11302A0F0ECEF2EF12CF02D0F2EFAEAAF2EF1E048
S11302B0BF2EF02D0F2EF4E38F2EF3E09F2EF02DA2
S11302C0312C0F2EFAE76F2EF1E07F2EF02D0E94D5
S11302D01803082F81110AC06BE070E081E00E94CE
S11302E0600382E591E00E94A30ADDC0833139F402
S11302F00E94430385E691E00E94A30ADDC0873192
S113030009F0D1C00E941D03EC01182FD7018C9174
S113031088236CF5832D0E94DB001F92B8EFBF93F6
S1130320BC0180E090E00E94B90420E030E040EAA3
S113033050E40E94F60420E030E048EC52E40E94CD
S1130340F60420E030E040E85AE30E94F6049F936C
S11303508F937F936F937F926F920E948D0AEDB774
S1130360FEB738960FB6F894FEBF0FBEEDBF11234B
S113037009F4A7C02E015524822D90E0B2018C5CB3
S11303809C4F0E94F203892B09F4A1C05F924F9203
S1130390BF92AF920E948D0A2C0E822D90E0FC0138
S11303A0ED5CFC4F0F900F900F900F9020812A303E
S11303B009F068C0D4018C918A3011F08D3061F459
S11303C065E670E08FEB91E00E948D0385E292E098
S11303D00E94A30A232C75C066E372E0C4010E9444
S11303E0F300811107C06BE372E0C4010E94F300C3
S11303F0882371F06CE270E080E492E00E948D0347
S11304008DE692E00E94A30A0E942203232C59C085
S113041061E872E0C4010E94F300882361F067E19F
S113042070E087E892E00E948D038FE992E00E94D9
S1130430A30A232C46C06EEA72E0C4010E94F300B2
S1130440882361F068E170E083EB92E00E948D0301
S11304508CEC92E00E94A30A232C33C08AED92E034
S11304600E94A30A60E070E0C4010E948D03BFE112
S1130470E1EAF7E0B150E040F040E1F700C00000ED
S1130480232C1FC0D4012C912F3FD9F49F932F927A
S1130490AFEEB2E0BF93AF930E948D0A0F900F901E
S11304A00F900F900EC00A3139F4DF92CF920E9460
S11304B08D0A0F900F900BCF0C3119F40E94220378
S11304C006CF0D3109F003CF0E942E0300CF81E93E
S11304D091E00E94A30A80E090E0DF91CF911F9108
S11304E00F91FF90EF90DF90CF90BF90AF909F90CF
S11304F08F907F906F905F904F903F902F900895D2
S11305008CE284B92A9A80E58CBD8DB581608DBD5D
S113051008952A9820EF2EBD0DB407FEFDCF9EBD91
S11305200DB407FEFDCF8EBD0DB407FEFDCF6EBD2D
S11305300DB407FEFDCF2A9A08952A982FE02EBD08
S11305400DB407FEFDCF9EBD0DB407FEFDCF8EBDDD
S11305500DB407FEFDCF1EBC0DB407FEFDCF2A9AD5
S11305608EB508951F93CF93DF93EC01162F672F59
S11305700E948902612FCE0101960E948902DF91B7
S1130580CF911F9108950F931F93CF93DF938C0105
S11305900E949D02C82FD0E0DC2FCC27C801019611
S11305A00E949D029E01280F311DC901DF91CF9148
S11305B01F910F9108958091C000882344F4A6EC04
S11305C0B0E0E0ECF0E08C9180818823E4F30895BE
S11305D01092C5008FEC8093C40088E18093C10021
S11305E086E08093C2000E94DB020895CF93C82F57
S11305F08A3019F48DE00E94F602E0ECF0E090817C
S113060095FFFDCFC093C60080E090E0CF910895A0
S1130610CF93BC01E0ECF0E090819923ECF7C0911A
S1130620C6008C2F0E94F6028C2F90E0CF91089583
S113063083E094E00E949D02089586E294E00E9483
S1130640C302089568E081E094E00E94890281E099
S113065094E00E949D028111FACF089560E181E047
S113066094E00E94890281E094E00E949D0281113D
S1130670FACF80E094E00E949D0291E0811101C0D4
S113068090E0892F089583E094E00E949D028331D5
S1130690A1F462E081E094E00E94890281E094E0A8
S11306A00E949D028111FACF83E094E00E949D0292
S11306B091E0843119F090E001C090E0892F089511
S11306C01F93CF93DF93182FEB0180E094E00E94F7
S11306D09D0281110E942E03612F80E094E00E940C
S11306E08902BE0184E094E00E94B20261E081E0EC
S11306F094E00E94890281E094E00E949D028111AD
S1130700FACF80E094E00E949D0291E0811190E094
S1130710892FDF91CF911F910895AF92BF92CF920D
S1130720DF92EF92FF920F931F93CF93DF937C019D
S11307308B01672B09F043C03FC080E294E00E9424
S1130740C302219761F460E181E094E00E94890290
S113075081E094E00E949D028111FACF37C0801796
S1130760910758F384E294E00E94C3025C016C0197
S1130770E8012197C6019770F70161917F01905CB0
S11307800E948902FFEFCF1ADF0A209791F7B50183
S1130790600F711F84E294E00E94B20260E281E083
S11307A094E00E94890281E094E00E949D028111FC
S11307B0FACFC1E0D0E00AC0C0E0D0E007C080E2D8
S11307C094E00E94C302C9EED3E0C9CFCE01DF9109
S11307D0CF911F910F91FF90EF90DF90CF90BF903A
S11307E0AF900895AF92BF92CF92DF92EF92FF92B3
S11307F00F931F93CF93DF937C016B0161387105D5
S113080050F588E294E00E94C3025C01C114D10453
S113081089F08501E6012197C8019770905A0E94DA
S11308209D02F70181937F010F5F1F4F209799F776
S1130830AC0CBD1CB50188E294E00E94B20260E4F5
S113084081E094E00E94890281E094E00E949D028C
S11308508111FACF0BC088E294E00E94C3025C01CC
S11308600F2EFEE7CF2ED12CF02DD3CF81E090E0D8
S1130870DF91CF911F910F91FF90EF90DF90CF9078
S1130880BF90AF900895CF93DF9360E880E090E04D
S11308900E948902CEE0D1E0688181E090E00E946C
S11308A08902698182E090E00E9489026A8183E082
S11308B090E00E9489026B8184E090E00E948902AA
S11308C0CAE1D1E0688189E090E00E9489026981EF
S11308D08AE090E00E9489026A818BE090E00E94A5
S11308E089026B818CE090E00E9489026C818DE02A
S11308F090E00E9489026D818EE090E00E9489025E
S1130900C2E1D1E0688185E090E00E9489026981BA
S113091086E090E00E9489026A8187E090E00E946C
S113092089026B8188E090E00E948902C6E1D1E0EF
S113093068818FE090E00E948902698180E190E003
S11309400E9489026A8181E190E00E9489026B81A0
S113095082E190E00E94890265E58AE190E00E94CC
S1130960890265E58BE190E00E948902DF91CF91D5
S11309700895E89409C097FB3EF49095809570958E
S113098061957F4F8F4F9F4F9923A9F0F92F96E9D7
S1130990BB279395F695879577956795B795F1114C
S11309A0F8CFFAF4BB0F11F460FF1BC06F5F7F4FE9
S11309B08F4F9F4F16C0882311F096E911C07723FB
S11309C021F09EE8872F762F05C0662371F096E804
S11309D0862F70E060E02AF09A95660F771F881FD3
S11309E0DAF7880F9695879597F908950E94090577
S11309F00C947A050E946C0538F00E94730520F06F
S1130A00952311F00C9463050C94690511240C943E
S1130A10AE050E948B0570F3959FC1F3950F50E0CE
S1130A20551F629FF001729FBB27F00DB11D639F9C
S1130A30AA27F00DB11DAA1F649F6627B00DA11D42
S1130A40661F829F2227B00DA11D621F739FB00DE8
S1130A50A11D621F839FA00D611D221F749F332758
S1130A60A00D611D231F849F600D211D822F762FF1
S1130A706A2F11249F5750409AF0F1F088234AF0CE
S1130A80EE0FFF1FBB1F661F771F881F915050403A
S1130A90A9F79E3F510580F00C9463050C94AE05B4
S1130AA05F3FE4F3983ED4F3869577956795B795C1
S1130AB0F795E7959F5FC1F7FE2B880F911D9695DB
S1130AC0879597F9089597F99F6780E870E060E04B
S1130AD008959FEF80EC089500240A9416161706D3
S1130AE018060906089500240A941216130614061B
S1130AF005060895092E0394000C11F4882352F07E
S1130B00BB0F40F4BF2B11F460FF04C06F5F7F4F35
S1130B108F4F9F4F089557FD9058440F551F59F01C
S1130B205F3F71F04795880F97FB991F61F09F3FD6
S1130B3079F087950895121613061406551FF2CFFF
S1130B404695F1DF08C0161617061806991FF1CF4F
S1130B5086957105610508940895E894BB27662776
S1130B607727CB0197F90895A3E1B0E0EAEBF5E02C
S1130B700C9430096C014B012A01FC011782168286
S1130B80838181FF43C3AE014F5F5F4F3A01F6019A
S1130B909381F40193FD859193FF81914F01882303
S1130BA009F430C3853239F493FD859193FF819123
S1130BB04F01853239F4B60190E00E94550A520182
S1130BC02501E5CF10E0F12C20E02032A0F48B3297
S1130BD069F030F4803259F0833269F420612CC01A
S1130BE08D3239F0803339F4216026C022602460CC
S1130BF023C0286021C027FD27C030ED380F3A30CC
S1130C0078F426FF06C0FAE01F9F300D1124132F3D
S1130C1013C04AE0F49E300D1124F32E20620CC060
S1130C208E3221F426FDEEC2206406C08C3611F407
S1130C30206802C0883641F4F40193FD859193FF46
S1130C4081914F018111C1CF9BEB980F933018F420
S1130C502061805E06C09BE9980F933008F071C153
S1130C602F7E26FF16E02F73322E853619F420646A
S1130C70322E08C0863621F4F22FF0683F2E02C0CF
S1130C801111115037FE07C01C3350F4EE24E394C5
S1130C90E10E27E00BC0183038F027E017E005C05C
S1130CA027E04CE3E42E02C0212FE12C520144E062
S1130CB0A40EB11CF20160817181828193810E2D99
S1130CC0A3010E9467092C01098100FF02C003FFF0
S1130CD007C031FC08C032FE09C030E2232E07C031
S1130CE02DE2222E04C09BE2292E01C0212C802F4C
S1130CF08C7019F0211068C2A8C237FE0FC0E40C32
S1130D0004FF04C08A81813309F4EA941E1474F543
S1130D10F8E0FE1578F588E0E82E2CC036FC2AC0F1
S1130D20812F90E0841595059CF02CEF42162FEF4F
S1130D30520674F0432D4068342E0AC0E2E0F0E01D
S1130D40EC0FFD1FE10FF11D8081803319F4115068
S1130D501111F4CF37FE0EC0EE24E394E10E812F7F
S1130D6090E0481659062CF4141904C0EE24E394B8
S1130D7001C010E037FE06C01414150434F4C20197
S1130D80019605C085E090E002C081E090E021106A
S1130D900196112331F0212F30E02F5F3F4F820F56
S1130DA0931F2F2D30E08217930714F4F81A01C013
S1130DB0F12C832D897049F4FF2039F0B60180E2CB
S1130DC090E00E94550AFA94F7CF222029F0B60148
S1130DD0822D90E00E94550A33FC09C0FF2039F0AF
S1130DE0B60180E390E00E94550AFA94F7CF37FEEB
S1130DF05AC0942D852D57FE02C090E080E0292E24
S1130E00382E20E030E0A2014E1951095D874C874D
S1130E10A201421953095F874E87612F70E044276E
S1130E205527461B570B598B488B5FEF2516350604
S1130E3049F4B6018EE290E02A8B3B8B0E94550A5E
S1130E403B892A89421453046CF04C855D85421514
S1130E50530544F4EE85FF85E20FF31FE60DF71DFD
S1130E60818101C080E351E0251A31082F5F3F4F93
S1130E7048895989241635064CF0B60190E02A8B2E
S1130E803B8B0E94550A2A893B89CFCF2414350411
S1130E9039F49A81963318F4953311F404FF81E3FD
S1130EA0B60190E04BC08A81813309F00F7EB60110
S1130EB090E00E94550A111105C034FC18C085E663
S1130EC090E017C0B6018EE290E00E94550A82E0DD
S1130ED0EE24E394E80EF301E80FF11D8081B601DE
S1130EE090E00E94550A11508E2D91F7E6CF85E4CB
S1130EF090E0B6010E94550A57FC05C04114510404
S1130F0039F404FF05C05194419451088DE201C0A5
S1130F108BE2B60190E00E94550A80E39AE04916FC
S1130F2051042CF08F5F5AE0451A5108F7CFB601EF
S1130F3090E00E94550AB601C201C0960E94550A6B
S1130F4057C1833631F0833779F0833509F058C0BF
S1130F5021C05201E2E0AE0EB11CF201808189830E
S1130F6001E010E0230114C05201F2E0AF0EB11C05
S1130F70F2014080518026FF03C0612F70E002C05F
S1130F806FEF7FEFC2012A8B0E944A0A8C012A89E3
S1130F902F7715C05201F2E0AF0EB11CF201408070
S1130FA0518026FF03C0612F70E002C06FEF7FEF16
S1130FB0C2012A8B0E943F0A8C012A892068322EA2
S1130FC023FD1AC08F2D90E008171907A8F4B60165
S1130FD080E290E00E94550AFA94F4CFF20137FCC3
S1130FE0859137FE81912F01B60190E00E94550A48
S1130FF0F110FA94015011090115110579F7F8C09F
S1131000843611F0893659F5520127FF09C0F4E0FE
S1131010AF0EB11CF20160817181828193810AC09B
S1131020F2E0AF0EB11CF20160817181072E000C59
S1131030880B990B2F76322E97FF09C090958095D7
S1131040709561957F4F8F4F9F4F2068322E2AE015
S113105030E0A3010E94D30AE82EE6183FC0022F15
S1131060853721F40F7E2AE030E01DC0097F8F36DA
S113107091F018F4883559F0C5C0803719F08837D5
S113108011F0C0C0006104FF09C0046007C024FF60
S113109008C0066006C028E030E005C020E130E06A
S11310A002C020E132E0520107FF09C0F4E0AF0EB4
S11310B0B11CF201608171818281938108C0F2E0E8
S11310C0AF0EB11CF2016081718180E090E0A30158
S11310D00E94D30AE82EE6180F77302E36FE0BC096
S11310E0332D3E7FE11650F434FE0AC032FC08C0B2
S11310F0332D3E7E05C00E2D332D03C00E2D01C0B1
S1131100012F34FF0CC0FE01EE0DF11D80818033F0
S113111011F4397E08C032FF05C00E5F04C0832F6E
S1131120867809F00F5F33FD13C030FF06C01E2D13
S11311300F1518F41F0D101B0F2D0F1568F4B601B1
S113114080E290E03B8B0E94550A0F5F3B89F5CF0C
S11311500F1510F4F01A01C0F12C34FF12C0B601BF
S113116080E390E03B8B0E94550A3B8932FF17C015
S113117031FD03C088E790E002C088E590E0B60145
S11311800CC0832F867859F031FF02C08BE201C076
S113119080E237FD8DE2B60190E00E94550AE11627
S11311A038F4B60180E390E00E94550A1150F7CF5D
S11311B0EA94F301EE0DF11D8081B60190E00E94E6
S11311C0550AE110F5CF14C0F4E0FF1558F584E09A
S11311D0F81A33FE1EC0211026C003FF2AC008E6F9
S11311E010E0F32DF0713F2EF8018491811124C099
S11311F0FF2009F4E5CCB60180E290E00E94550A94
S1131200FA94F6CFF6018681978126C08FEF9FEF7F
S113121023C0B60180E290E00E94550AFA94F110CE
S1131220F8CFD9CFF12CB601822D90E00E94550A57
S1131230D4CF0CE610E0D5CF31108052B60190E047
S11312400E94550A0F5F1F4FCFCF23E02F1510F4D4
S113125083E0BECFF12CC1CF6396E2E10C944C093C
S11312602F923F924F925F926F927F928F929F92B2
S1131270AF92BF92CF92DF92EF92FF920F931F93A0
S1131280CF93DF93CDB7DEB7CA1BDB0B0FB6F89451
S1131290DEBF0FBECDBF09942A88398848885F8491
S11312A06E847D848C849B84AA84B984C884DF8002
S11312B0EE80FD800C811B81AA81B981CE0FD11DE6
S11312C00FB6F894DEBF0FBECDBFED0108952830F0
S11312D008F027E03327DA01990F311D87FD91606B
S11312E000966105710539F432602E5F3D9330E359
S11312F02A95E1F708959F3F30F080387105610524
S113130009F03C5F3C5F3D93913008F08068911D8B
S1131310DF93CF931F930F93FF92EF92192F987F30
S11313209695E92F96959695E90FFF27E653FF4F7B
S113133099273327EE24FF24A701E7010590089499
S1131340079428F4360FE71EF81E491F511D660F37
S1131350771F881F991F0694A1F70590079428F416
S1131360E70EF81E491F561FC11D770F881F991FCE
S1131370661F0694A1F70590079428F4F80E491FF8
S1131380561FC71FD11D880F991F661F771F06940C
S1131390A1F70590079420F4490F561FC71FD81FC3
S11313A0990F661F771F881F0694A9F784911095DB
S11313B0177041F0D695C79557954795F794E794DC
S11313C01A95C1F7E0E7F0E068941590159135910E
S11313D06591959105907FE27395E118F10A430BAD
S11313E0560BC90BD009C0F7E10CF11E431F561F61
S11313F0C91FD01D7EF4703311F48A95E6CFE894AA
S1131400015030F0080F0AF40027021708F4202FC7
S11314102395022F7A3328F079E37D932A95E9F70F
S113142010C07D932A9589F606949795679537950C
S113143017951794E118F10A430B560BC90BD00901
S113144098F023957E9173957A3308F070E37C933A
S11314502013B8F77E9170617D9330F0839571E32A
S11314607D9370E32A95E1F71124EF90FF900F919B
S11314701F91CF91DF91992787FD90950895FC01E5
S11314800590615070400110D8F7809590958E0FAB
S11314909F1F0895FC016150704001900110D8F71E
S11314A0809590958E0F9F1F08950F931F93CF9350
S11314B0DF93FB01238121FD03C08FEF9FEF28C041
S11314C022FF16C046815781248135814217530774
S11314D044F4A081B1819D012F5F3F4F318320836C
S11314E08C93268137812F5F3F4F3783268310C02B
S11314F0EB01092F182F0084F185E02D0995892B24
S1131500E1F68E819F8101969F838E83812F902F98
S1131510DF91CF911F910F910895A0E0B0E0E3E92E
S1131520FAE00C944009AE014B5F5F4FFA01619100
S11315307191AF018091B6039091B7030E94B405F5
S1131540E2E00C945C090F931F93CF93DF93E09137
S1131550B603F091B703238121FF1BC08C01D0E0B7
S1131560C0E0F80181918F016091B6037091B703D7
S1131570DB011896ED91FC911997882331F00995B8
S1131580892B79F3DFEFCFEFECCF8AE00995892B34
S113159019F08FEF9FEF02C08D2F9C2FDF91CF9119
S11315A01F910F910895FA01AA27283051F1203193
S11315B081F1E8946F936E7F6E5F7F4F8F4F9F4FE3
S11315C0AF4FB1E03ED0B4E03CD0670F781F891F25
S11315D09A1FA11D680F791F8A1F911DA11D6A0FF3
S11315E0711D811D911DA11D20D009F468943F91A6
S11315F02AE0269F11243019305D3193DEF6CF01A5
S11316000895462F4770405D4193B3E00FD0C9F76A
S1131610F6CF462F4F70405D4A3318F0495D31FDD7
S11316204052419302D0A9F7EACFB4E0A69597952A
S1131630879577956795BA95C9F700976105710500
S113164008959B01AC010A2E06945795479537954A
S11316502795BA95C9F7620F731F841F951FA01DA4
S10916600895F894FFCF89
S11316660000000300000000F60208030000C0A802
S11316760001FFFFFF00C0A8000565CF1CE7F07658
S1131686496E697469616C697A696E672057697A0B
S11316966E657420616E64205350492E2E2E0049C7
S11316A66E697469616C697A696E6720646F6E65C8
S11316B62100536F636B65747374617465203D20F8
S11316C64F50454E00536F636B6574737461746554
S11316D6203D204C495354454E0054656D70657247
S11316E66174757265203D20252E32662563430A92
S11316F600436F756C64206E6F742066696E642097
S1131706616E792064617461210042797465732085
S11317167265636569766564203D2025640A005711
S1131726656C636F6D65210D0A596F75206172656D
S113173620636F6E6E656374656420746F206D65D7
S11317462C2041726475696E6F20616E642077691E
S1131756736820746F20646F20736F6D6574686995
S11317666E672E0D0A596F75722077697368206942
S113177673206D7920636F6D6D616E642C207369BF
S113178672210D0A0057656C636F6D6520697320BD
S113179673656E64210071756974006578697400F7
S11317A6486176652061206D617276656C6F75732C
S11317B6206461792C20736972210D0A446973636C
S11317C66F6E6E656374696E672E2E2E00446973A0
S11317D6636F6E6E6563742069732073656E64212E
S11317E6007374617274005475726E656420746853
S11317F6652073797374656D204F4E210D0A00536D
S1131806746172742069732073656E642100737445
S11318166F70005475726E65642074686520737900
S11318267374656D204F4646210D0A0053746F701C
S11318362069732073656E64210052657475726E37
S1131846696E67207468652064617461210D0052B5
S113185665636569766564207472617368696E6729
S113186620636F6D6D616E64210A547261736869D9
S11318766E672025642062797465732064617461DF
S11318860A00536F636B657420436C6F73696E67EC
S10718962E2E2E00C0
S9030000FC
