:100000000C9434000C9451000C9451000C94510049
:100010000C9451000C9451000C9451000C9451001C
:100020000C9451000C9451000C9451000C9451000C
:100030000C9451000C9451000C9451000C945100FC
:100040000C9451000C9451000C9451000C945100EC
:100050000C9451000C9451000C9451000C945100DC
:100060000C9451000C94510011241FBECFEFD8E026
:10007000DEBFCDBF13E0A0E0B1E0E6EEFDE002C0E0
:1000800005900D92A834B107D9F723E0A8E4B3E0B6
:1000900001C01D92AE3CB207E1F70E946E000C94C5
:1000A000F1060C940000FB012081222389F0FC0161
:1000B000308123130FC0FB013196DC01119603C080
:1000C0008D91981309C091919111FACF81E0089513
:1000D00081E0089580E0089580E008952F924F9286
:1000E0005F926F927F928F929F92AF92BF92CF92C8
:1000F000DF92EF92FF920F931F93CF93DF930E94B3
:10010000250280E091E09093CB038093CA032FE314
:100110008DE093E0215080409040E1F700C0000066
:1001200080E291E00E940C040E94BD01AFE3BDE0BB
:10013000E3E0A150B040E040E1F700C000000E94C1
:1001400080038FE391E00E940C049CEE9AB98FEF3C
:1001500087B99BB988B9212C0F2EF6E3CF2EF3E097
:10016000DF2EF02D0F2EF0ECEF2EF12CF02D0F2EB8
:10017000FEEB8F2EF1E09F2EF02D0F2EF8E4AF2E28
:10018000F3E0BF2EF02D0F2EF8EC6F2EF3E07F2E54
:10019000F02D0E945502082F81110AC06BE070E01B
:1001A00081E00E949D0282E591E00E940C04B9C0AA
:1001B000833139F40E94800285E691E00E940C04AC
:1001C000B9C0873109F0ADC00E945A02EC01182F66
:1001D000D7018C91882354F48AE791E00E940C04A3
:1001E00067E170E08DE891E00E94CA02112309F4F2
:1001F000A6C02E015524822D90E0B201885B9C4F51
:100200000E942F03892B09F4A0C05F924F929F9206
:100210008F920E94F6032C0E822D90E0FC01E95B88
:10022000FC4F0F900F900F900F9020812A3009F013
:1002300067C0F3011082D5018C918A3011F08D30A6
:1002400061F465E670E083ED91E00E94CA0289E303
:1002500092E00E940C04212C72C06AE472E0C50195
:100260000E945300811107C06FE472E0C5010E9433
:100270005300882371F06CE270E084E592E00E9404
:10028000CA0281E892E00E940C040E945F02212CC5
:1002900056C065E972E0C5010E945300882361F0F1
:1002A00067E170E08BE992E00E94CA0283EB92E082
:1002B0000E940C04212C43C062EC72E0C5010E9434
:1002C0005300882361F068E170E087EC92E00E94BF
:1002D000CA0280EE92E00E940C04212C30C08EEE07
:1002E00092E00E940C0460E070E0C5010E94CA0226
:1002F000E7EAF1E63197F1F700C00000212C1FC0BA
:10030000D5012C912F3FD9F49F932F92A3E0B3E016
:10031000BF93AF930E94F6030F900F900F900F9032
:100320000EC00A3139F4DF92CF920E94F6030F908B
:100330000F902FCF0C3119F40E945F022ACF0D319C
:1003400009F027CF0E946B0224CF85EA91E00E943A
:100350000C0480E090E0DF91CF911F910F91FF900E
:10036000EF90DF90CF90BF90AF909F908F907F9055
:100370006F905F904F902F9008958CE284B92A9AE5
:1003800080E58CBD8DB581608DBD08952A9820EFE4
:100390002EBD0DB407FEFDCF9EBD0DB407FEFDCFF3
:1003A0008EBD0DB407FEFDCF6EBD0DB407FEFDCFB3
:1003B0002A9A08952A982FE02EBD0DB407FEFDCF8E
:1003C0009EBD0DB407FEFDCF8EBD0DB407FEFDCF63
:1003D0001EBC0DB407FEFDCF2A9A8EB508951F935B
:1003E000CF93DF93EC01162F672F0E94C601612F78
:1003F000CE0101960E94C601DF91CF911F91089511
:100400000F931F93CF93DF938C010E94DA01C82FC3
:10041000D0E0DC2FCC27C80101960E94DA019E01B2
:10042000280F311DC901DF91CF911F910F910895C0
:100430008091C000882344F4A6ECB0E0E0ECF0E04A
:100440008C9180818823E4F308951092C5008FEC8D
:100450008093C40088E18093C10086E08093C2004D
:100460000E9418020895CF93C82F8A3019F48DE0A6
:100470000E943302E0ECF0E0908195FFFDCFC09345
:10048000C60080E090E0CF910895CF93BC01E0ECEE
:10049000F0E090819923ECF7C091C6008C2F0E9468
:1004A00033028C2F90E0CF91089583E094E00E9476
:1004B000DA01089586E294E00E940002089568E05F
:1004C00081E094E00E94C60181E094E00E94DA019C
:1004D0008111FACF089560E181E094E00E94C601A5
:1004E00081E094E00E94DA018111FACF80E094E08B
:1004F0000E94DA0191E0811101C090E0892F0895F6
:1005000083E094E00E94DA018331A1F462E081E0AB
:1005100094E00E94C60181E094E00E94DA0181111A
:10052000FACF83E094E00E94DA0191E0843119F07F
:1005300090E001C090E0892F08951F93CF93DF933F
:10054000182FEB0180E094E00E94DA0181110E94F3
:100550006B02612F80E094E00E94C601BE0184E03E
:1005600094E00E94EF0161E081E094E00E94C60106
:1005700081E094E00E94DA018111FACF80E094E0FA
:100580000E94DA0191E0811190E0892FDF91CF91F3
:100590001F910895AF92BF92CF92DF92EF92FF9298
:1005A0000F931F93CF93DF937C018B01672B09F08F
:1005B00043C03FC080E294E00E940002219761F4B2
:1005C00060E181E094E00E94C60181E094E00E9435
:1005D000DA018111FACF37C08017910758F384E20E
:1005E00094E00E9400025C016C01E8012197C601C1
:1005F0009770F70161917F01905C0E94C601FFEF47
:10060000CF1ADF0A209791F7B501600F711F84E2BE
:1006100094E00E94EF0160E281E094E00E94C60154
:1006200081E094E00E94DA018111FACFC1E0D0E0CC
:100630000AC0C0E0D0E007C080E294E00E9400025F
:10064000C9EED3E0C9CFCE01DF91CF911F910F91B9
:10065000FF90EF90DF90CF90BF90AF900895AF9252
:10066000BF92CF92DF92EF92FF920F931F93CF939F
:10067000DF937C016B016138710550F588E294E0ED
:100680000E9400025C01C114D10489F08501E601D9
:100690002197C8019770905A0E94DA01F70181935F
:1006A0007F010F5F1F4F209799F7AC0CBD1CB50160
:1006B00088E294E00E94EF0160E481E094E00E940F
:1006C000C60181E094E00E94DA018111FACF0BC0EB
:1006D00088E294E00E9400025C010F2EFEE7CF2E1C
:1006E000D12CF02DD3CF81E090E0DF91CF911F91FD
:1006F0000F91FF90EF90DF90CF90BF90AF90089553
:10070000CF93DF9360E880E090E00E94C601CEE0E6
:10071000D1E0688181E090E00E94C601698182E0B9
:1007200090E00E94C6016A8183E090E00E94C601C9
:100730006B8184E090E00E94C601CAE1D1E068814B
:1007400089E090E00E94C60169818AE090E00E9401
:10075000C6016A818BE090E00E94C6016B818CE04B
:1007600090E00E94C6016C818DE090E00E94C6017D
:100770006D818EE090E00E94C601C2E1D1E0688107
:1007800085E090E00E94C601698186E090E00E94C9
:10079000C6016A8187E090E00E94C6016B8188E013
:1007A00090E00E94C601C6E1D1E068818FE090E050
:1007B0000E94C601698180E190E00E94C6016A81C1
:1007C00081E190E00E94C6016B8182E190E00E948D
:1007D000C60165E58AE190E00E94C60165E58BE10E
:1007E00090E00E94C601DF91CF910895A0E0B0E0B3
:1007F000ECEFF3E00C94CA06AE014B5F5F4FFA01D9
:1008000061917191AF018091CA039091CB030E94D5
:100810003C04E2E00C94E6060F931F93CF93DF9322
:10082000E091CA03F091CB03238121FF1BC08C010F
:10083000D0E0C0E0F80181918F016091CA0370910E
:10084000CB03DB011896ED91FC911997882331F0C9
:100850000995892B79F3DFEFCFEFECCF8AE009958B
:10086000892B19F08FEF9FEF02C08D2F9C2FDF9106
:10087000CF911F910F910895ACE0B0E0E2E4F4E075
:100880000C94BA067C016B018A01FC011782168266
:10089000838181FFBDC1CE0101964C01F701938197
:1008A000F60193FD859193FF81916F01882309F4EF
:1008B000ABC1853239F493FD859193FF81916F012E
:1008C000853229F4B70190E00E942406E7CF512C2D
:1008D000312C20E02032A0F48B3269F030F48032E9
:1008E00059F0833269F420612CC08D3239F08033A5
:1008F00039F4216026C02260246023C0286021C012
:1009000027FD27C030ED380F3A3078F426FF06C0B7
:10091000FAE05F9E300D1124532E13C08AE0389EFA
:10092000300D1124332E20620CC08E3221F426FDAE
:100930006BC1206406C08C3611F4206802C0883672
:1009400041F4F60193FD859193FF81916F0181112F
:10095000C1CF982F9F7D9554933028F40C5F1F4F83
:10096000FFE3F9830DC0833631F0833771F08335AF
:1009700009F05BC022C0F801808189830E5F1F4FA0
:1009800044244394512C540115C03801F2E06F0EF9
:10099000711CF801A080B18026FF03C0652D70E0B6
:1009A00002C06FEF7FEFC5012C870E9419062C0152
:1009B00083012C852F77222E17C03801F2E06F0EAD
:1009C000711CF801A080B18026FF03C0652D70E086
:1009D00002C06FEF7FEFC5012C870E940E062C012D
:1009E0002C852068222E830123FC1BC0832D90E0E0
:1009F00048165906B0F4B70180E290E00E94240640
:100A00003A94F4CFF50127FC859127FE81915F018F
:100A1000B70190E00E94240631103A94F1E04F1A99
:100A200051084114510471F7E5C0843611F089363C
:100A300039F5F80127FF07C06081718182819381B8
:100A40000C5F1F4F08C060817181072E000C880B5E
:100A5000990B0E5F1F4F2F76722E97FF09C090954E
:100A60008095709561957F4F8F4F9F4F2068722EB4
:100A70002AE030E0A4010E945C06A82EA81844C019
:100A8000853729F42F7EB22E2AE030E025C0F22FE0
:100A9000F97FBF2E8F36C1F018F4883579F0B4C0D5
:100AA000803719F0883721F0AFC02F2F2061B22E88
:100AB000B4FE0DC08B2D8460B82E09C024FF0AC07F
:100AC0009F2F9660B92E06C028E030E005C020E1D7
:100AD00030E002C020E132E0F801B7FE07C06081DB
:100AE0007181828193810C5F1F4F06C0608171818B
:100AF00080E090E00E5F1F4FA4010E945C06A82ECC
:100B0000A818FB2DFF777F2E76FE0BC0372D3E7F7A
:100B1000A51450F474FE0AC072FC08C0372D3E7E46
:100B200005C0BA2C372D03C0BA2C01C0B52C34FF38
:100B30000DC0FE01EA0DF11D8081803311F4397E74
:100B400009C032FF06C0B394B39404C0832F8678E3
:100B500009F0B39433FD13C030FF06C05A2CB31410
:100B600018F4530C5B18B32CB31468F4B70180E28B
:100B700090E03C870E942406B3943C85F5CFB314E3
:100B800010F43B1801C0312C34FF12C0B70180E3D0
:100B900090E03C870E9424063C8532FF17C031FD5F
:100BA00003C088E790E002C088E590E0B7010CC080
:100BB000832F867859F031FF02C08BE201C080E2BA
:100BC00037FD8DE2B70190E00E942406A51438F4A9
:100BD000B70180E390E00E9424065A94F7CFAA94CC
:100BE000F401EA0DF11D8081B70190E00E94240616
:100BF000A110F5CF332009F451CEB70180E290E087
:100C00000E9424063A94F6CFF7018681978102C0AC
:100C10008FEF9FEF2C96E2E10C94D606FC01059035
:100C2000615070400110D8F7809590958E0F9F1FEE
:100C30000895FC016150704001900110D8F7809533
:100C400090958E0F9F1F08950F931F93CF93DF935F
:100C5000FB01238121FD03C08FEF9FEF28C022FFFE
:100C600016C046815781248135814217530744F4C9
:100C7000A081B1819D012F5F3F4F318320838C93F1
:100C8000268137812F5F3F4F3783268310C0EB01CA
:100C9000092F182F0084F185E02D0995892BE1F6A5
:100CA0008E819F8101969F838E83812F902FDF916C
:100CB000CF911F910F910895FA01AA27283051F181
:100CC000203181F1E8946F936E7F6E5F7F4F8F4F7D
:100CD0009F4FAF4FB1E03ED0B4E03CD0670F781FDC
:100CE000891F9A1FA11D680F791F8A1F911DA11DC1
:100CF0006A0F711D811D911DA11D20D009F46894FA
:100D00003F912AE0269F11243019305D3193DEF6A1
:100D1000CF010895462F4770405D4193B3E00FD057
:100D2000C9F7F6CF462F4F70405D4A3318F0495D42
:100D300031FD4052419302D0A9F7EACFB4E0A69525
:100D40009795879577956795BA95C9F70097610547
:100D5000710508959B01AC010A2E0694579547959D
:100D600037952795BA95C9F7620F731F841F951F92
:100D7000A01D08952F923F924F925F926F927F92A3
:100D80008F929F92AF92BF92CF92DF92EF92FF929B
:100D90000F931F93CF93DF93CDB7DEB7CA1BDB0B47
:100DA0000FB6F894DEBF0FBECDBF09942A883988EC
:100DB00048885F846E847D848C849B84AA84B984F3
:100DC000C884DF80EE80FD800C811B81AA81B981FF
:100DD000CE0FD11D0FB6F894DEBF0FBECDBFED0113
:060DE0000895F894FFCF16
:100DE6000000000300000000330245020000C0A816
:100DF6000001FFFFFF00C0A8000565CF1CE7F076E5
:100E0600496E697469616C697A696E672057697A97
:100E16006E657420616E64205350492E2E2E004953
:100E26006E697469616C697A696E6720646F6E6554
:100E36002100536F636B65747374617465203D2084
:100E46004F50454E00536F636B65747374617465E0
:100E5600203D204C495354454E0049276D20696E6C
:100E66002C2062726F7568616861210D00596F757B
:100E76002061726520696E206D79207379737465BF
:100E86006D210D0A00436F756C64206E6F742066C9
:100E9600696E6420616E7920646174612100427913
:100EA600746573207265636569766564203D2025E7
:100EB600640A0057656C636F6D65210D0A596F757D
:100EC6002061726520636F6E6E656374656420745D
:100ED6006F206D652C2041726475696E6F20616E9E
:100EE60064207769736820746F20646F20736F6D58
:100EF600657468696E672E0D0A596F757220776979
:100F06007368206973206D7920636F6D6D616E64FF
:100F16002C20736972210D0A0057656C636F6D652D
:100F26002069732073656E642100717569740065AC
:100F360078697400486176652061206D6172766516
:100F46006C6F7573206461792C20736972210D0AA8
:100F5600446973636F6E6E656374696E672E2E2EB9
:100F660000446973636F6E6E6563742069732073E2
:100F7600656E6421007374617274005475726E65D7
:100F860064207468652073797374656D204F4E21F3
:100F96000D0A0053746172742069732073656E6460
:100FA600210073746F70005475726E6564207468E6
:100FB600652073797374656D204F4646210D0A00CE
:100FC60053746F702069732073656E6421005265D7
:100FD6007475726E696E67207468652064617461E9
:100FE600210D0052656365697665642074726173CC
:100FF60068696E6720636F6D6D616E64210A547255
:10100600617368696E672025642062797465732050
:10101600646174610A00536F636B657420436C6F7F
:0810260073696E672E2E2E0087
:00000001FF
